:100000000C942A000C9434000C9434000C943400AA
:100010000C9434000C9434000C9434000C94340090
:100020000C9434000C9434000C9434000C94340080
:100030000C9434000C9434000C9434000C94340070
:100040000C9434000C9434000C9434000C94340060
:100050000C94340011241FBECFE5D8E0DEBFCDBF25
:100060000E9436000C9467000C9400008FEF87BB51
:1000700018BA11BA82BB30E00FC0231710F4C09A2F
:1000800001C0C0982F5F2436C1F701968F3F9105BC
:1000900011F020E0F2CF3F5F3436A8F480E090E02A
:1000A000F8CF321710F4C09A01C0C0982150C9F798
:1000B00001968F3F910511F024E6F3CF3F5F343670
:1000C00019F430E0EBCF30E080E090E0F5CFF89429
:0200D000FFCF60
:00000001FF
