:100000000C942A000C9434000C9434000C943400AA
:100010000C9434000C9434000C9434000C94340090
:100020000C9434000C9434000C9434000C94340080
:100030000C9434000C9434000C9434000C94340070
:100040000C9434000C9434000C9434000C94340060
:100050000C94340011241FBECFE5D8E0DEBFCDBF25
:100060000E9436000C944F000C9400008FEF87BB69
:1000700018BA11C0231710F4C09A01C0C0982F5F9E
:100080002436C1F701968F3F910511F020E0F2CFA1
:100090003F5F343608F030E080E090E0F7CFF8942E
:0200A000FFCF90
:00000001FF
